:020000040800F2
:10000000A8170020210200082F24000871160008FC
:100010002D2400088B0300081127000800000000B1
:10002000000000000000000000000000890100083E
:100030008D03000800000000CD01000885240008A1
:100040003B0200083B0200083B0200083B0200089C
:100050003B0200083B0200083B0200083B0200088C
:100060003B0200083B0200083B0200083B0200087C
:100070003B0200083B0200083B0200083B0200086C
:100080003B0200083B0200083B0200083B0200085C
:100090003B0200083B0200083B0200083B0200084C
:1000A0003B0200083B0200083B0200083B0200083C
:1000B0003B0200083B0200083B02000881160008D2
:1000C000751600083B0200083B0200083B020008CE
:1000D0003B0200083B0200083B0200083B0200080C
:1000E0003B0200083B0200083B02000800F002F857
:1000F00000F03AF80AA090E8000C82448344AAF188
:100100000107DA4501D100F02FF8AFF2090EBAE885
:100110000F0013F0010F18BFFB1A43F0010318473B
:1001200080330000A0330000103A24BF78C878C1A3
:10013000FAD8520724BF30C830C144BF04680C60ED
:10014000704700000023002400250026103A28BF35
:1001500078C1FBD8520728BF30C148BF0B60704739
:100160001FB51FBD10B510BD00F0D6F81146FFF742
:10017000F7FF02F0F1FA00F0F4F803B4FFF7F2FF32
:1001800003BC00F0FBF80000224B19680868B0E8D7
:10019000F00F80F30988BFF36F8F4FF0000080F3FA
:1001A00011884EF00D0E70470000000006480068F0
:1001B000006880F3088862B661B6BFF34F8FBFF363
:1001C0006F8F00DF00BF00BF08ED00E0EFF3098094
:1001D000BFF36F8F0F4B1A6820E9F00F106008B55E
:1001E0004FF0500080F31188BFF34F8FBFF36F8F34
:1001F00002F02CFF4FF0000080F31188BDE80840AA
:1002000019680868B0E8F00F80F30988BFF36F8FB2
:10021000704700BF24000020EFF305807047000006
:100220000948804709480047FEE7FEE7FEE7FEE78A
:10023000FEE7FEE7FEE7FEE7FEE7FEE704480549C6
:10024000054A064B70470000FB240008ED0000083B
:10025000A8110020A8170020A8130020A813002030
:1002600010B5203AC0F00B80B1E81850203AA0E851
:100270001850B1E81850A0E81850BFF4F5AF5FEA85
:10028000027C24BFB1E81850A0E8185044BF18C938
:1002900018C0BDE810405FEA827C24BF51F8043BDF
:1002A00040F8043B08BF7047D20728BF31F8023B33
:1002B00048BF11F8012B28BF20F8023B48BF00F8C7
:1002C000012B70474FF0000200B513469446964646
:1002D000203922BFA0E80C50A0E80C50B1F1200159
:1002E000BFF4F7AF090728BFA0E80C5048BF0CC007
:1002F0005DF804EB890028BF40F8042B08BF704765
:1003000048BF20F8022B11F0804F18BF00F8012BD6
:100310007047704770477047754600F02BF8AE463F
:1003200005006946534620F00700854618B020B501
:10033000FFF784FFBDE820404FF000064FF00007B4
:100340004FF000084FF0000B21F00701AC46ACE87D
:10035000C009ACE8C009ACE8C009ACE8C0098D46EA
:10036000704710B50446AFF300802046BDE810404A
:10037000FFF703BF004870474411002001491820CF
:10038000ABBEFEE7260002007047FEE770470000A4
:1003900010B590F821100024022903D004218163B4
:1003A00001243DE001680A6822F00E020A6001683B
:1003B0000A6822F001020A601A4A0168914201D1DA
:1003C000012121E0174A1432914201D110211BE092
:1003D000144A2832914201D1891515E0114A3C3264
:1003E000914201D189140FE00E4A5032914202D15C
:1003F0004FF4803108E00B4A6432914202D14FF44D
:10040000801101E04FF08071064A083A51600121E5
:1004100080F82110002180F82010416B01B188473D
:10042000204610BD0800024090F8210070470000EF
:100430002DE9F84FDFF8B8910024A9F1040B234609
:100440000F2709F1040AABF1040EC9E00125A5400C
:100450002A40AA427DD1674ED1F804C0ACEB060811
:10046000B44532D014DCBCF1030F3AD009DCBCF146
:10047000000F2AD0BCF1010F1CD0BCF1020F31D10A
:100480001DE0BCF1110F17D0BCF1120F2AD119E0F9
:10049000B8F5881F19D006DCB8F5803F15D0B8F53F
:1004A000801F1FD111E0B8F5001F0ED0B8F5041F52
:1004B00018D10AE0CB6815E0CB681B1D12E0CB68B1
:1004C00008330FE0CB680C330CE08B682BB1012BA9
:1004D0004FF0080303D0456104E0042302E0056106
:1004E00000E00023FF2A01D8064601E000F10406DF
:1004F0004FEA840501D9A5F12005D6F8008007FA56
:1005000005FC28EA0C0803FA05F548EA0508C6F8D0
:1005100000804D68ED0062D5374DAE6946F00106AA
:10052000AE61AD6924F0030605F001050095334D79
:1005300006EB050CDCF80850A607360F07FA06F89C
:1005400025EA0805DFF8B880404503D14FF00008E0
:1005500017E044E0DFF8AC80404502D14FF00108DD
:100560000FE0DFF8A480404502D14FF0020808E018
:10057000DFF89880404502D14FF0030801E04FF0CA
:10058000040808FA06F848EA0508CCF808804D681F
:10059000D9F80060ED024D4601D5164300E09643C0
:1005A0002E604D68DAF80060AD02554601D516435D
:1005B00000E096432E604D68DBF80060AD035D46B9
:1005C00001D5164300E096432E604D68DEF80060CA
:1005D000ED03754601D5164300E096432E60641C7A
:1005E0000D682A46E5407FF431AFBDE8F88F000082
:1005F00008040140000011100010024000000140FA
:1006000000080140000C01400010014000140140AE
:100610000AB1016170470904FBE7000001488068E6
:100620007047000014000020704770472DE9F0412A
:10063000016804464A694E6890F83E000025D74399
:10064000FA050BD4F243D20508D46FF48072012569
:100650004A6121680A6842F400420A60B90508D478
:10066000F143C90505D422686FF4007145F0020515
:100670005161790525D4F143C90522D4638D94F8DD
:100680003D10226B202808D13BB9212910D02929FF
:100690000ED0282901D1212A0AD022686FF4806166
:1006A000516145F00405102806D0402804D008E028
:1006B000204601F047FC04E02068016841F4007125
:1006C0000160380508D4F043C00505D421686FF4F3
:1006D000006045F008054861002D07D0206C2843D4
:1006E00020642046BDE8F04101F036B8BDE8F08155
:1006F0002DE9F047026800215368C66A90F83E4031
:1007000090F83D50102C12D0402C10D0046C002CCE
:100710007DD05469E443A6077AD4DE43B60577D486
:10072000036C03B19169BDE8F04701F0E7BB97693D
:1007300051694FF42A0CC9435FEAC1784FF02A4946
:1007400004D066452AD04E4528D010E0DE43B605D9
:100750000DD4C16A614501D1012103E0C16A494557
:1007600001D10821C162BDE8F04701F02DBB0E07A1
:1007700016D4DE43B60513D4416CC9B21161416B86
:1007800009B1896A29B9816B002907D0896A0029D2
:1007900004D00068416841F400614160BDE8F08721
:1007A0008E0706D4DE43B60503D4BDE8F04701F05A
:1007B0005FBAFE43526876074FEA02521DD4002A00
:1007C000ECDB0A0608D4DA43520505D4490705D5FF
:1007D000BDE8F04701F0F0B94907DFD4D9438905F6
:1007E000DCD4212D05D0402CD8D1BDE8F04701F054
:1007F00031BBBDE8F04701F09DB9002ACEDB4A06C7
:100800000BD4DA43520508D4490708D501E00DE0BE
:100810000EE0BDE8F04701F0CBB84907BED4D9439C
:100820008905BBD4BDE8F04701F059B8916970E77C
:10083000E10606D4D943890503D4BDE8F04701F0A9
:10084000C9BB2821212D27D0292D25D0650655D4B7
:10085000DD436D0552D4640752D590F83D30448D88
:10086000002C9BD01269446A2270426A521C426278
:10087000428D521E4285428D002A8FD12A2B8DD166
:100880000268536823F4806353602222026380F875
:100890003D1000F003FA81E7250623D4DD436D0502
:1008A00020D4640720D590F83D30448D002CF2D040
:1008B000446A24781461426A521C4262428D521E7C
:1008C0004285428D002AE6D1292BE4D10268536883
:1008D00023F4806353602122026380F83D1000F00E
:1008E000DEF95BE76107D6D4D9438905D3D4418DBE
:1008F0000029D0D0416A097811610AE06107CAD4A1
:10090000D9438905C7D4418D0029C4D01169426AF1
:100910001170416A491C4162418D491E41853DE784
:100920007047000070B5040025D094F83D00002504
:1009300020B984F83C50204600F054F9242084F873
:100940003D002068016821F0010101602068016814
:1009500041F4004101602068016821F40041016018
:1009600000F0D2FA4D4A6168914201D84C4900E04A
:100970004C49884201D2012070BD4B492368B0FB2D
:10098000F1F15E6826F03F060E435E6063689342B5
:1009900006D94FF4967359434FF47A73B1FBF3F1D0
:1009A0002368491C1E6A26F03F06314319626168BC
:1009B000914210D84900401EB0FBF1F2521CC2F324
:1009C0000B02042A01D2042022E0B0FBF1F0401C0B
:1009D000C0F30B001CE0A268F2B301EBC10303EB10
:1009E0000116431EB3FBF6F35B1C43F480431B0567
:1009F00049D092B301EBC10202EB0111401EB0FBE2
:100A0000F1F0401CC0F30B0040F4804040F4004083
:100A10002168CA694CF6FF739A431043C861D4E950
:100A2000071001432068026822F0C00211430160F0
:100A3000D4E9030101432068826848F2FF339A43F6
:100A400011438160D4E9050108432168CA6822F096
:100A5000FF021043C86001E00EE016E02068016864
:100A600041F0010101602564202084F83D002563E8
:100A700084F83E50002070BD01EB4106431EB3FBDD
:100A8000F6F35B1CB3E70120C2E701EB4101401E16
:100A9000B0FBF1F0401CC0F30B00B7E7A0860100EB
:100AA00080841E0000093D0040420F0070477047DF
:100AB000704700002DE9F84F1F4690468A460446CD
:100AC000DDF82890FFF7AAFD054694F83D002028A0
:100AD0007FD11923012240492046009501F054FBA3
:100AE000002876D194F83C00012872D0012084F8C7
:100AF0003C0020680168C90703D1016841F0010189
:100B000001602068016821F400610160212084F8FF
:100B10003D00102084F83E0000262664C4F824809E
:100B20006785608D20852D48E0622B464A465146F8
:100B3000204600F0B1FF90B92068416980690090BB
:100B400036E02A464946204601F0C4FB50B1206CED
:100B5000042804D12068016841F40071016001207B
:100B6000BDE8F88F606A216800780861606A401CFF
:100B70006062618D491E6185218D491E89B2218582
:100B800022685369DB435B070BD451B100781061D5
:100B9000606A401C6062608D401E6085208D401E32
:100BA00020852A464946204601F0C2FA0028CED1C7
:100BB000208D0028C5D154F83D0B016841F4007127
:100BC0000160202004F81E09E67766770020C7E759
:100BD000FFE70220C4E70000020010000000FFFF52
:100BE0007047704730B585B00021009101910291A6
:100BF0000391264D0368264C122103222548AB425F
:100C000028D1A36943F00803A361A369039203F009
:100C100008030493C023CDE900316946FFF708FCBF
:100C2000E06940F40010E061E069002200F4001087
:100C3000049005211F2000F09FF81F2000F08EF87F
:100C400000220521202000F097F8202000F086F8EF
:100C500005B030BD104DAB42FAD1A36943F0080393
:100C6000A361A369039203F0080304934FF4406364
:100C7000CDE900316946FFF7DBFBE06940F4800015
:100C8000E061E06900F480000490E1E70054004076
:100C900000100240000C01400058004070477047AF
:100CA0000248816802781144816070471400002076
:100CB000074810B5016841F010010160032000F001
:100CC0007BF80F2000F006F800F024F8002010BD9B
:100CD0000020024070B50D4D04464FF47A7128781B
:100CE000B1FBF0F00A490968B1FBF0F000F0E2FA5C
:100CF00048B9102C07D200222146501E00F03CF8C3
:100D000000206C6070BD012070BD00001400002048
:100D1000200000200F4808B5816941F00101816180
:100D2000816901F001010091C16941F08051C16107
:100D3000C069002200F0805000900F21901E00F04A
:100D40001BF80548416821F0E06141F08061416095
:100D500008BD00000010024000000140002809DB2F
:100D600000F01F02012191404009800000F1E020C5
:100D7000C0F8001170470000F0B40E4B1B680C4621
:100D8000C3F30223C3F10705042D00D90425191D5F
:100D9000072901D2002300E0DB1E012606FA05F137
:100DA000491E214099409E40761E16403143F0BCBA
:100DB00001F0AFBC0CED00E0064900F00702086846
:100DC0004FF6FF03184040EA0220034A1043086030
:100DD000704700000CED00E00000FA052DE9F04737
:100DE0000F46050061D0434E306800F00700B8425E
:100DF00009D2306820F0070038433060306800F0D6
:100E00000700B84251D128683B4C810712D54007F2
:100E100003D5606840F4E06060602878000703D57F
:100E2000606840F4605060606068A96820F0F0007D
:100E3000084360602878C00728D06868012810D06F
:100E40002168022810D0890700292EDA616821F074
:100E5000030101436160FFF7E1FB804641F28839FD
:100E60000DE021688903EFE78901EDE7FFF7D6FB85
:100E7000A0EB0801494502D90320BDE8F08760686E
:100E8000696800F00C00B0EB810FEFD1306800F022
:100E90000700B8420BD9306820F0070038433060B3
:100EA000306800F00700B84201D00120E5E728785B
:100EB000400705D56068E96820F4E0600843606099
:100EC0002878000706D56068296920F4605040EA58
:100ED000C100606000F038F86168084AC1F303118E
:100EE000515CC8400649086006480068FFF7F2FEFA
:100EF0000020C2E7002002400010024056340008E3
:100F000020000020180000200448054900684968B6
:100F1000044AC1F30221515CC84070472000002000
:100F2000001002406634000804480549006849681A
:100F3000044AC1F3C221515CC84070472000002020
:100F400000100240663400080E4A51680E4801F055
:100F50000C03042B11D0082B0FD10C48C1F3834391
:100F6000C903C05C0AD55168084AC1F34041921ECA
:100F7000515C054A5043B0FBF1F0704704494843C7
:100F8000704700000010024000127A00463400084A
:100F900000093D002DE9F84F040070D02078C04DC5
:100FA000C00749D06868C0F38100012807D068688D
:100FB000C0F38100022809D16868C00306D52868FB
:100FC000800339D560680028E7D035E06068B0F567
:100FD000803F0BD010B1B0F5A02F11D0286820F4BD
:100FE00080302860286820F4802002E0286840F4DF
:100FF00080302860606890B1FFF710FB06460AE079
:10100000286840F480202860F0E700BFFFF706FB67
:10101000801B642873D828688003F7D50CE0FFF79D
:10102000FDFA064605E000BFFFF7F8FA801B6428CA
:10103000F0D828688003F7D420789A4E80074FF0C4
:1010400001094FF0000839D5686810F00C0F07D07F
:101050006868C0F38100022809D16868C00306D41B
:101060002868800714D52069012808D110E020697C
:10107000B0B1C6F80090FFF7D1FA074605E00AE1E3
:10108000FFF7CCFAC01B0228C4D828688007F7D520
:101090002868616920F0F80040EAC10028600DE08E
:1010A000C6F80080FFF7BAFA074604E0FFF7B6FA81
:1010B000C01B022823D828688007F7D420780007AF
:1010C0002CD57948A169D9B1C0F80090FFF7A6FAEC
:1010D000074604E0FFF7A2FAC01B02280FD8686A8F
:1010E0008007F7D571484FF4FA510068B0FBF1F072
:1010F000009000BF0098411E0091FAD20EE080E0FF
:10110000C0F80080FFF78AFA074604E0FFF786FA86
:10111000C01B022875D8686A8007F7D4207840077A
:1011200060D5E8690027C00008D4E86940F0805025
:10113000E861E869012700F0805000905C48016890
:10114000C90513D40168834641F480710160FFF73B
:1011500065FA824606E000BFFFF760FAA0EB0A00DE
:1011600064284ED8DBF80000C005F5D5E0680128FA
:101170000AD008B1052813D0286A20F0010028629F
:10118000286A20F0040002E0286A40F0010028628A
:10119000E06841F2883B98B1FFF740FA82460BE0E5
:1011A000286A40F004002862EEE700BFFFF736FA35
:1011B000A0EB0A0159455AD8286A8007F6D50CE0F9
:1011C000FFF72CFA824605E0FFF728FAA0EB0A01A8
:1011D00059454CD8286A8007F6D41FB1E86920F039
:1011E0008050E861E06988B36968C1F38101022930
:1011F00044D00228C6F8608004D0FFF70FFA0446F6
:1012000038E034E0FFF70AFA074604E0FFF706FA91
:10121000C01B02282BD828688001F7D4206AB0F5BB
:10122000803F05D16868A16820F4003008436860F9
:10123000D4E908010843696821F47411084368601F
:10124000C6F86090FFF7EAF9044606E025E000BF23
:10125000FFF7E4F9001B022809D828688001F7D5B8
:101260001BE000BFFFF7DAF9001B022802D90320B8
:10127000BDE8F88F28688001F4D40EE00128F7D08B
:101280006868226A00F48031914204D1616A00F4F6
:101290007010884201D00120EAE70020E8E7000052
:1012A0000010024000004242800442422000002020
:1012B0000070004010B5401EB0F1807F01D30120C6
:1012C00010BD4FF0E02460610F21601701F021FA9A
:1012D0000020A06107202061002010BD70B590F8AB
:1012E0003C20012A26D0012480F83C40022280F8CC
:1012F0003D2003685A689D6822F070060A683243F0
:101300005A600D4B02689A4208D0B2F1804F05D066
:101310000A4B9A4202D00A4B9A4204D1496825F0FE
:1013200080031943916080F83D40002180F83C1013
:10133000084670BD022070BD002C01400004004032
:101340000008004090F83D0070472DE9F0410D463F
:10135000040003D094F83D0018B108E00120BDE876
:10136000F081002084F83C00204600F041F8022083
:1013700084F83D002068816844F20702914381604F
:10138000211D206801F0BAF8226890689169166AF8
:101390002B68AF69034340F20330814341EA0721E0
:1013A000A868EF6908434FF6FC418843E96840EAC2
:1013B0000720014328692F6A000140EA07300843EB
:1013C00069686D6926F0220646EA0515294393608F
:1013D0002268906154F8460B0162012004F81F094D
:1013E000E0752076E0762077A0750020B7E7000052
:1013F00000B585B000210091019102910391006830
:101400000E49884218D10E48C16941F00201C161FC
:10141000C16901F002010491816941F00401816117
:101420008069694600F004000490C020009001200B
:1014300002900448FEF7FCFF05B000BD0004004028
:10144000001002400008014070B590F83E6004466C
:1014500090F83F5090F8423090F84320022021B19C
:1014600004290ED0012E1BD114E0012E18D1012B1E
:1014700016D184F83E0084F8420001220021206841
:1014800020E0012D0CD1012A0AD184F83F0084F814
:10149000430014E0012D03D1012B01D1012A01D019
:1014A000012070BD84F83E0084F83F0084F84200BB
:1014B00084F8430001220021206801F055F8012240
:1014C0000421206801F050F82068016841F0010112
:1014D0000160002070BD70B5040004D094F8410094
:1014E000002510B106E0012070BD84F84050204670
:1014F00000F024F8242084F841002068C16821F419
:101500000051C160204601F03DF82068016921F4D6
:10151000904101612068416921F02A014161206800
:10152000C16841F40051C1606564202084F8410025
:1015300084F842006563002070BD000030B585B0BE
:101540000024009401940294039400681449884292
:1015500024D11448816941F480418161816901F499
:1015600080410491816941F00401816180690E4DDF
:1015700000F0040004904FF490500090022001907D
:101580000320039069462846FEF752FF2815CDE94F
:101590000004694628460294FEF74AFF05B030BDB4
:1015A00000380140001002400008014070B50400FE
:1015B00004D094F83D00002510B106E0012070BD74
:1015C00084F83C50204600F01BF8022084F83D00CF
:1015D000204601F033F82068016921F4804101615F
:1015E0002068416921F02A0141612068C16841F405
:1015F0000051C1602564012084F83D00002070BDC9
:1016000030B585B0002400940194029403940068DE
:101610001449884223D11448C16941F40031C161A1
:10162000C16901F400310491816941F004018161D3
:1016300080690E4D00F004000490142000900220F8
:1016400001900320039069462846FEF7F1FE08202A
:10165000CDE90004694628460294FEF7E9FE05B08C
:1016600030BD00000044004000100240000801406E
:10167000FEE700000148FEF7D9BF0000840000200B
:101680000148FFF735B800008400002038B5406AF3
:10169000002190F83D202B4B46F2A8141B68B3FBA9
:1016A000F4F3C3EBC30303EB830300933BB15B1E73
:1016B000009303681B689B0505D5009BF6E7036C48
:1016C00043F020030364436B03B19962836B03B15E
:1016D000996203681C6824F480641C604185436B34
:1016E00003B15963836B03B1596303681C6824F029
:1016F00001041C6090F83D402023602C0BD028246E
:1017000034EA02020FD080F83D3080F83E1000BF6E
:10171000FFF706F938BD80F83D3080F83E100164CF
:10172000FEF782FF38BD0268136843F001031360BF
:101730000268136843F480631360016380F83D40DE
:10174000E6E700002000002000684169C94309065F
:1017500001D400210161704770B5044690F83D0046
:1017600094F83E10102901D0402906D1222804D136
:1017700021680A6822F400620A60282131EA000226
:101780004FF000054FF0200626D021684968090572
:1017900005D4602803D084F83D6084F83E5025636A
:1017A00020684168090537D5416821F4006141602E
:1017B000606B90F821203C49012A11D04163606B95
:1017C000FEF7E6FD38B32068016821F001010160F1
:1017D00084F83D60606B1CE0256384F83D10DFE712
:1017E000A06B4163A06BFEF7D3FDA0B120684169F7
:1017F000C943490605D40069616A0870606A401CE3
:1018000060622068016821F00101016084F83D6098
:10181000A06B416B884710E094F83D10602910D010
:101820004169C943490605D40069616A0870606A64
:10183000401C60622046FFF773F8206CC1071CD182
:1018400015E084F83D6025644169C943490605D423
:101850000069616A0870606A401C60622068016803
:1018600021F0010101602046FEF7DEFEE5E7810779
:1018700003D4410701D4000704D52068416821F44E
:10188000E061416094F83D00216C49070BD52828A0
:1018900009D10648E062256384F83D6084F83E5033
:1018A0002046FFF703F970BD8D1600080000FFFF0A
:1018B00001684A69D24352050FD46FF480624A61CD
:1018C000002140F8301F202242738173026942F0E8
:1018D000040202610173012070470020704710B5B7
:1018E000C26A438D0168042B06D0438D032B08D0B8
:1018F000438D022B1DD012E04A6822F480624A60B8
:101900000CE04B6823F480634B60042A06D0022A63
:1019100004D001680A6822F480620A6001680969DB
:10192000426A1170416A491C4162418D491E4185DC
:1019300010BD012A30D0102A2ED0042A30D0022A1D
:101940002ED00A6842F400720A6001680969426A8E
:101950001170416A491C4162428D521E42850268E3
:1019600012690A70416A491C4162418D491E4185D4
:1019700001684A6822F440724A60202180F83D10D4
:1019800090F83E200021402A80F83E100CD0122111
:101990000163FFF78CF810BD0A6822F48062D3E778
:1019A0000A6842F48062CFE70163FFF719F910BDBE
:1019B00038B590F83D1022290FD1418D03290DD95A
:1019C00001680969426A1170416A491C4162418D8E
:1019D000491E4185418D032906D038BDC26A022ABD
:1019E00002D0012906D029B10068416821F4806144
:1019F000416038BD274946F2A81300220968B1FBAF
:101A0000F3F101EB8101009101682023009C641E29
:101A1000009422D00C68A405F8D40C6824F48064E7
:101A20000C6001684C6824F4E0644C60016809694A
:101A3000446A2170416A491C4162418D491E4185B9
:101A400080F83D3090F83E1080F83E2040291DD0AF
:101A500012210163FFF72BF838BD046C44F0200419
:101A600004644C6824F4E0644C6001680969446AC9
:101A70002170416A491C4162418D491E418580F8AF
:101A80003D3080F83E20FEF74BFF38BD0263FFF784
:101A9000A7F838BD20000020F8B50446C06A1E46ED
:101AA0000D461746082807D0012805D010F5803FBD
:101AB00002D0206B122804D12068016841F48071A3
:101AC0000160134600224FF001112046009600F0FD
:101AD0005BFB40B120680068C00502D54FF4007080
:101AE00020640320F8BD2069B0F5804F0ED0062099
:101AF000216800EAD51040F0F000086133463A460C
:101B00000B49204600F088FB78B902E005F0FE00A2
:101B100000E0E8B221680861054933463A46891F6A
:101B2000204600F079FB0028DCD00120F8BD000041
:101B30000800010010B5C26A90F83D1021290BD1B0
:101B4000418D51B1416A026809781161416A491CAD
:101B50004162418D491E418510BD20230021082A84
:101B600013D0202A11D012F5803F0ED0026854689D
:101B700024F4E06454601122026380F83E1080F87F
:101B80003D3000BFFEF794FF10BD0268546824F496
:101B9000E06454600268146844F4007414600163E3
:101BA00080F83D3090F83E2080F83E10402AE9D180
:101BB000FFF717F810BD000010B590F83D1090F831
:101BC0003E30C26A048DB4B1212903D0402B11D11B
:101BD00022290FD1418DE1B390F83E10402942D027
:101BE000416A026809781161416A491C4162418D6C
:101BF000491E418510BD2129E8D120230021082A52
:101C000013D0202A11D012F5803F0ED002685468FC
:101C100024F4E06454601122026380F83E1080F8DE
:101C20003D3000BFFEF744FF10BD0268546824F445
:101C3000E06454600268146844F400741460016342
:101C400080F83D3090F83E2080F83E10402AE9D1DF
:101C500000E002E0FEF7C5FF10BD0068416821F416
:101C60008061416010BDBDE8104000F0F3B8000095
:101C700078B590F83E50C26A046B90F83D6000233E
:101C80000168222E73D1066D0EB9402D6FD0056DFF
:101C90001DB90569B5F5404F1BD0458D95B3468DEF
:101CA000484D012E20D0448D022C4DD00C6844F4B8
:101CB00080640C6001684C68240579D5AA4273D011
:101CC000012A71D0082A6FD0102A6DD0202A6BD03B
:101CD0006EE04A698A6900920A6842F480720A607A
:101CE000016D491C016578BDAA4214D10A6822F42D
:101CF00080620A6001684A68120504D50A6822F405
:101D0000806217E0FFE74A698A6900920A6842F434
:101D100000720A6050E0082A10D0202A0ED0122C3F
:101D20000AD0042A03D0022A01D0102AE6D10A6878
:101D300042F480620A603BE0012ADFD00A6822F4A4
:101D400080620A600168DEE7042A11D0022A0FD0FF
:101D5000102A0DD00C6844F400640C6001684C69D2
:101D60008C6900940C6824F480640C6008E025E021
:101D70000C6844F480640C6001684C6989690091C6
:101D800001684C68240517D5AA4207D0012A05D05E
:101D9000082A03D0102A01D0202A0DD14A6842F423
:101DA00080524A6008E0FFE74A6842F480524A6085
:101DB00001684A6989690091036578BD4869886945
:101DC000009078BD0000FFFF90F83E10402910D031
:101DD0000169B1F5804F19D0016DA9B3016D0129D9
:101DE00010D1416C5FF0F10201F4407142EAD1116F
:101DF00006E0016D0029416C05D0C9B241F0010136
:101E000000680161704701F0FE01F9E790F83D10AC
:101E10002129416C09D0C9B241F001010268116168
:101E2000416B29B1896A49B902E001F0FE01F5E789
:101E3000816B0029E6D0896A0029E3D000684168F7
:101E400041F4006141607047FFE7416CF02201F40A
:101E50004071CBE710B590F83D10026D4AB1026DAC
:101E6000012A14D0026D022A16D0BDE81040FFF7F7
:101E70006BBCC16C0129816C02D0C1F3072108E061
:101E80000268C9B21161016D891C016510BD816CC8
:101E9000C9B20268116123E022291CD0428D0AB127
:101EA000212920D0428D002AF0D12129EED10168CC
:101EB0004A6822F4E0624A6001680A6842F40072EB
:101EC0000A6000210163202280F83D2080F83E1046
:101ED000FEF787FE10BD01680A6842F480720A604E
:101EE000016D491CD1E7416A026809781161416AB4
:101EF000491C4162418D491E418510BD38B50C46D3
:101F000090F83D2000212825954302680B4605D016
:101F100051699169009180F83C3038BD556825F4CD
:101F200080655560E243540700D50121120601D5B2
:101F3000828900E0028B80F83C3092B2FEF775FB9C
:101F400038BD00002DE9F04190F83D300446C26AEA
:101F5000002120261E4F00686FF48065082A01D0FA
:101F6000202A01D1282B04D0212B17D04561BDE8B0
:101F7000F081E762426822F4E062426020684561D5
:101F80002068026822F480620260216384F83D6068
:101F900084F83E102046FEF789FDE8E7E76221223B
:101FA000226384F83D6084F83E10416821F4E061CA
:101FB0004160206845612068016821F4806101600A
:101FC0002046FFF7C1FB2046FEF769FECFE7000081
:101FD0000000FFFFF8B590F83D60044600684168D6
:101FE00021F4E061416020680025416900910168A9
:101FF00041F0010101602068016821F48061016005
:1020000020684168090520D5474F222E48D02A2E46
:1020100046D0616B096849686185618D19B1216C91
:1020200041F004012164416821F400614160606B6A
:10203000FEF7FAF9012808D0606B4763606BFEF782
:10204000A7F910B1606B416B8847608D08B32068B9
:102050004169C943490708D40069616A0870606A28
:10206000401C6062608D401E608520684169C943E4
:10207000490608D40069616A0870606A401C6062A1
:10208000608D401E6085608D18B1206C40F00400AA
:102090002064206C00B32046BDE8F840FFF75CBB2D
:1020A000A16B096849686185618D19B1216C41F0A6
:1020B00004012164416821F400614160A06BFEF7D6
:1020C000B3F90128C1D0A06B4763A06BFEF760F99C
:1020D0000028BAD0A06BB6E72A2E06D125632820A7
:1020E00084F83D002046FEF7D9FD94F83D102020ED
:1020F00028290DD0216B222901D0222E07D125635A
:1021000084F83D0084F83E502046FEF7C7FDF8BD38
:102110000649E162256384F83D0084F83E5020467C
:10212000FEF7C4FCF8BD00008D1600080000FFFF9C
:1021300070B516460D4604461EE02046FFF7B8FB74
:1021400008B1012070BD681C16D0FEF767FA801B2D
:10215000A84200D885B920684069C04340070BD524
:10216000002044F8300F20216173A073216941F0F1
:10217000200121612073E4E720684069C0434007E3
:10218000DBD4002070BD00002DE9F04798461746CB
:102190000D460446C1F30746DDF820902AE000BF53
:1021A000B8F1FF3F26D0FEF739FAA0EB090141450F
:1021B00002D8B8F1000F1DD12068012E16D0806919
:1021C00025EA00000004000C12D00020B84211D112
:1021D000002044F8300F20216173A073216941F081
:1021E0002001216120730120BDE8F0874069E7E705
:1021F0000120EBE72068012E0AD0806925EA000063
:102200000004000C06D00020B842C9D00020EBE743
:102210004069F3E70120F7E72DE9F04798461646B5
:102220000D4604464FF000094FF0200AC1F307475E
:1022300023E020684069C043400515D42068016848
:1022400041F40071016021686FF480604861C4F856
:10225000309084F83DA084F83E90216C41F0040158
:10226000216484F83C9021E0701C06D0FEF7D6F97A
:10227000A0EB0800B04203D816B1012F1FD021E017
:102280002068012F15D0806925EA00000004000CA9
:1022900018D000BF44F8309F84F80DA084F80E9049
:1022A000216941F02001216184F80C900120BDE8F2
:1022B000F087406925EA00000004000CEAD120689C
:1022C000406901E02068806925EA00000004000CF4
:1022D000AFD1ECE770B516460D4604461EE0204629
:1022E000FFF7E6FA08B1012070BD681C16D0FEF7B2
:1022F00095F9801BA84200D885B920684069C04381
:1023000000060BD5002044F8300F20216173A07324
:10231000216941F0200121612073E4E720684069D0
:10232000C0430006DBD4002070BD000070B586B04D
:10233000002420480094019402940394816941F0A0
:1023400010018161816901F010010491816941F0FE
:1023500020018161816901F020010491816941F0CE
:1023600004018161816901F004010491816941F0F6
:10237000080181618069104E00F008004FF400559B
:102380000490002229463046FEF742F901210095CB
:10239000CDE90114039169463046FEF749F8202043
:1023A000CDE90004694605480294FEF741F806B0FD
:1023B00070BD000000100240001001400008014004
:1023C00010B58CB024216846FDF77CFF0024164828
:1023D000099414490A94C0E900144FF6FF71C0E94A
:1023E0000241046184610320CDE900040120CDE9AC
:1023F00002040A210491CDE90540CDE9074169466F
:102400000948FEF7A2FF08B172B6FEE7099409A9D0
:1024100005480A94FEF762FF002801D072B6FEE775
:102420000CB010BD000400402C010020FEE7FEE7C8
:10243000012000F031FAFBE70A4C4FF400564FF44C
:102440007A75012231462046FEF7E2F8284600F070
:1024500023FA002231462046FEF7DAF8284600F03B
:102460001BFAEEE70010014000F06CFC642000F065
:1024700013FAFBE700F06AF900F05CF9012000F0C4
:102480000BFAF9E710B5FEF70BFC00F0CFFE0128C0
:1024900003D0BDE8104000F05BBE10BD30B58FB07A
:1024A00028216846FDF70EFF14210AA8FDF70AFF50
:1024B00001210804CDE900100024029402250491B2
:1024C000CDE907504FF4E01009906846FEF762FD31
:1024D00008B172B6FEE70F20CDE90A054FF480601F
:1024E000CDE90C4002210AA80E94FEF777FC0028E3
:1024F00001D072B6FEE70FB030BD7047F0B502688C
:10250000164B174C174D4FF08047984205D0B842F4
:1025100003D0A04201D0A84203D122F070064A683D
:102520003243984205D0B84203D0A04201D0A8421D
:1025300003D122F44074CA6822434C6922F080021D
:10254000224302608A68C2620A688262984201D1AC
:102550000969016301214161F0BD0000002C0140C7
:10256000000400400008004010B501F01F030121E5
:10257000046A99408C430462016A9A4011430162E3
:1025800010BD000070B5044600680169E26821F4DE
:102590004051114301612169A06808436169084302
:1025A0002168CA6841F20C639A430243CA602068FA
:1025B0004169A26921F44071114341611E492068BB
:1025C000884202D1FEF7B0FC01E0FEF79DFC00EB73
:1025D000C00101EB0012606864218000B2FBF0F3DF
:1025E000B3FBF1F36FF018067343B2FBF0F5B2FBE7
:1025F000F0F605EB8305322303EB0515B5FBF1F58A
:10260000B6FBF1F605F0F00505EB0615B2FBF0F6AA
:10261000B2FBF0F0B0FBF1F06FF01802504306EBA4
:10262000800003EB0010B0FBF1F0216800F00F0018
:102630002844886070BD0000003801402DE9F04159
:1026400004460068C16821F00C01C160206801697E
:10265000D4E906231A43E568236A21F47C512B430D
:102660001A430A4342F4006101612268D16841F2D1
:102670000C6081432369A068184363690B431843C6
:10268000D0602068416921F4407141611F49206890
:1026900064253226884202D1FEF746FC01E0FEF7AF
:1026A00033FC00EBC00101EB001160686FF0180C07
:1026B0008000B1FBF0F3B3FBF5F3B1FBF0F7B1FB36
:1026C000F0F203FB0CF307EB830306EB0313B2FBFF
:1026D000F5F2B3FBF5F3120103F0F00302EB430252
:1026E000B1FBF0F3B1FBF0F0B0FBF5F000FB0CF048
:1026F00003EB800006EB0010B0FBF5F0216800F062
:102700000F0010448860BDE8F081000000380140EF
:10271000FEE70907090E002804DB00F1E02080F83D
:102720000014704700F00F0000F1E02080F8141D45
:102730007047000010B50348FEF704FE0249087018
:1027400010BD00002C010020000000203C210148A9
:10275000FEF77ABE2C0100209CB0FEF7A9FAFFF725
:102760009DFEFFF7E3FD40483E49002401603F49DC
:10277000C0E901144FF48045C0E903454461846118
:10278000C4610462FEF7CEF808B172B6FEE73648BF
:102790003749543001603749C0E90114C0E90345A5
:1027A00044618461C4610462FEF7BCF808B172B68A
:1027B000FEE72D483049F0300C2501604FF41651EA
:1027C000C0E90114C4604FF48071C0E90445C0E958
:1027D0000614FEF780FE08B172B6FEE728482749C6
:1027E00001604FF4E131C0E90114C460C0E904455F
:1027F0008461C4610462FEF7D9FE08B172B6FEE7D7
:10280000FFF7DEFD1C221F496846FDF729FD002168
:10281000684600F04DF81C4C1A491C2220601C31FF
:1028200007A8FDF71DFD002107A800F041F8154994
:1028300060601C2238310EA8FDF712FD00210EA8A1
:1028400000F036F80F49A0601C22543115A8FDF79E
:1028500007FD002115A800F02BF8E06000F023F838
:10286000FEE700000054004084000020801A0600AB
:1028700000580040A086010000380140004400409C
:10288000BC010020D43300080400002001460020D1
:10289000842900D0C81C704710B500B9012000F091
:1028A00071FB002010BD10B500F092FB002010BDA0
:1028B0007FB50D4604464169B0F9080081B1A169B0
:1028C00071B1FFF7E3FFD4E905128DE80700D4E901
:1028D00000102B46226900F07EFC039004B070BD0E
:1028E000FFF7D4FF03A9CDE90001208A2B4682B26D
:1028F000D4E9001000F042FC012801D00020EDE7EF
:102900000398EBE72DE9F041184C0F460546666940
:102910002068001D00F072FA38B9206890F82C1079
:1029200001208840A1698143A161681C07D137B1AA
:102930002168BDE8F0410E48091D00F0A3BA2068E7
:102940003544B5424560216805D2A068BDE8F04134
:10295000091D00F07FBA6068091D00F07BFA206B4A
:10296000854200D22563BDE8F081000024000020EC
:10297000300500202DE9F041054600F08FFA2E4C7D
:102980002069401C206120682C4F10B1E06940B3E1
:102990002DE025602069012829D1002606EB86005C
:1029A00007EB800000F048FA761C072EF6D3234888
:1029B0008C3000F041FA2148A03000F03DFA1F4869
:1029C000B43000F039FA1D48C83000F035FA1B4821
:1029D000DC3000F031FA19488C3060601430A060AF
:1029E00005E02068E96AC06A884200D82560E06A8C
:1029F000401CE062E96A0120A26988401043A0619E
:102A000001EB810007EB8000291D00F03BFA00F08C
:102A100065FAE06900280CD02068E96AC06A88423B
:102A200007D207494FF080500860BFF34F8FBFF3C4
:102A30006F8FBDE8F08100002400002054040020C6
:102A400004ED00E010B5044690F8510058B101289B
:102A50000CD002280FD0502080F31188BFF34F8F85
:102A6000BFF36F8FFEE7206B00F04CFA2046BDE805
:102A7000104000F047BA10BD10484FF440614207C3
:102A800006D0C01D0D4920F00700411AC1F5406174
:102A90000B4A00230144C2E900030839103A21F02F
:102AA000070111604B600B600B1AC0E900139360C3
:102AB0004FF000405360D060704700004405002094
:102AC00070000020144E154CA6F1C8074FF0805836
:102AD000DFF84C9012E000BF00F0E0F9F068C56844
:102AE000281D00F08BF92069401E2061E068401E1F
:102AF000E06000F0F3F92846FFF7A4FFE068002843
:102B0000EAD138680128F9D9C9F80080BFF34F8F9E
:102B1000BFF36F8FF2E700001C05002024000020A7
:102B200004ED00E02DE9F0479A46DDE9098481468D
:102B30006FF00303206B03EB82021044089D20F02A
:102B40000706700707D0502080F31188BFF34F8F1E
:102B5000BFF36F8FFEE723180A5C83F834200A5C0A
:102B600012B1401C1028F6D3002784F84370072DBB
:102B700000D30625E562C4E91157201D00F067F96E
:102B800004F1180000F063F92461C5F107006462E4
:102B9000A061E76484F8507052464946304600F020
:102BA000BFF82060B8F1000F01D0C8F80040BDE8C0
:102BB000F087000030B5114900E011460A688242F2
:102BC000FBD34B685C18844203D1406818444860CA
:102BD000084643681C18944209D1084C103C2468EC
:102BE000A24209D052681A4442600A681268026020
:102BF000814200D0086030BD0460F9E77000002019
:102C000006484168096829B14168C968C9684968C6
:102C1000016370474FF0FF31FAE700002400002005
:102C200008484068401C4FF0500080F3118804D0E1
:102C3000BFF34F8FBFF36F8FFEE7BFF34F8FBFF32D
:102C40006F8FFEE7780000202DE9F0410546002750
:102C500000F0F4F9314E306808B9FFF70DFFF06865
:102C600005424BD1C5B3083568070ED005F0070003
:102C7000C0F108000544680707D0502080F3118890
:102C8000BFF34F8FBFF36F8FFEE72DB370688542A0
:102C900034D82248103001460C6801E020460C462A
:102CA0006168A94202D221680029F7D131688C42BB
:102CB00024D007682168016060680837411B10292B
:102CC0000FD96019420708D0502080F31188BFF354
:102CD0004F8FBFF36F8FFEE710E041606560FFF735
:102CE00069FF61687068401A7060B268904200D2F3
:102CF000B060F06801430020C4E9000100F008FB67
:102D0000780707D0502080F31188BFF34F8FBFF3AF
:102D10006F8FFEE73846BDE8F081000060000020BC
:102D200010B5031F4FF080741C601B1F21F00101C0
:102D30001960191F024B0B60143940380A6010BD2E
:102D4000212C000810B5AE2000F04AF8D52000F084
:102D500047F8802000F044F8A82000F041F83F2018
:102D600000F03EF8D32000F03BF8002000F038F8E7
:102D7000402000F035F88D2000F032F8142000F0EB
:102D80002FF8202000F02CF8002000F029F8A120D6
:102D900000F026F8C82000F023F8DA2000F020F830
:102DA000122000F01DF8812000F01AF88F2000F0AA
:102DB00017F8D92000F014F8F12000F011F8DB200A
:102DC00000F00EF8402000F00BF8A42000F008F806
:102DD000A62000F005F8BDE81040AF20AFF300805A
:102DE00001B582B064200090012302AA7821024834
:102DF000FDF760FE0EBD000084000020D0E9013226
:102E000001699A60D0E901235A604A68824201D17F
:102E100082684A60002202610868401E08600868F3
:102E200070470000034B036003F1540008608020EA
:102E3000106070470002002000F108014FF0FF32DF
:102E4000C0E90112C16001610021016070470021E9
:102E50000161704730B50B685A1C02D000F10802BE
:102E600002E0026904E02246546825689D42FAD9CE
:102E700053684B6099608A60516008610168491C21
:102E8000016030BD42684A6093688B609368596006
:102E9000916008610168491C01607047502080F30F
:102EA0001188BFF34F8FBFF36F8F0A494868401CEA
:102EB000486001280CD10848006810F0FF0F07D0C7
:102EC000502080F31188BFF34F8FBFF36F8FFEE761
:102ED000704700007800002004ED00E008494868D1
:102EE00028B1401E486001D180F3118870475020FE
:102EF00080F31188BFF34F8FBFF36F8FFEE70000A1
:102F00007800002070B5002827D0144DA0F10804E7
:102F10006168E868014207D1502080F31188BFF34F
:102F20004F8FBFF36F8FFEE722683AB1502080F3D6
:102F30001188BFF34F8FBFF36F8FFEE7814361604E
:102F400000F07CF860686968084468602046FFF714
:102F500031FEBDE8704000F0DBB970BD60000020BC
:102F60004FF0E02000210161816105494FF47A7240
:102F70000968B1FBF2F1491E416107210161704707
:102F80002000002010B5020014D00F48806B38B12B
:102F9000502080F31188BFF34F8FBFF36F8FFEE790
:102FA00000F04CF800211046FFF7ACFC00F0B0F93F
:102FB000002807D105494FF080500860BFF34F8FBC
:102FC000BFF36F8F10BD00002400002004ED00E06F
:102FD00010B586B00024039405AA04A903A804949C
:102FE000FFF720FFDDE903010094CDE90110002384
:102FF0000EA11048059A00F0EEF80F49002848632A
:1030000011D0502080F31188BFF34F8FBFF36F8F23
:103010004FF0FF3008630120C8614C6106B0BDE885
:10302000104000F041B806B010BD000049444C45C6
:1030300000000000C52A0008240000200248816B1F
:10304000491C816370470000240000201448816BF4
:1030500011B1012141627047002141628169B1FAD9
:1030600081F1C1F11F0101EB81020E4951F82230BB
:103070006BB101EB820101F108034A6852684A60B2
:103080009A4201D152684A60D1680160704750206D
:1030900080F31188BFF34F8FBFF36F8FFEE70000FF
:1030A00024000020540400201CB526490878019013
:1030B000FF20087008788DF800009DF800009DF84A
:1030C000002000F0F000904207D0502080F31188DB
:1030D000BFF34F8FBFF36F8FFEE79DF800001A4BD1
:1030E00000F0500018700720986005E09DF800205F
:1030F00052008DF80020401E9DF800201206F5D4E5
:103100009860032807D0502080F31188BFF34F8FB9
:10311000BFF36F8FFEE74FF440709860019808701E
:103120000A48016841F470010160016841F0704192
:103130000160FFF715FF00205860FDF737F8002009
:103140001CBD000000E400E07800002020ED00E05D
:1031500010B5502080F31188BFF34F8FBFF36F8FEE
:1031600000F072F818B104494FF080500860002058
:1031700080F3118810BD000004ED00E02DE9FF5F31
:103180008346DDE90E87994616468A469000FFF78A
:103190005BFD05001CD05420FFF756FD040014D041
:1031A0000020256384F85100CDE90240CDE9008775
:1031B0004B46324651465846FFF7B4FC2046FFF7CF
:1031C000D9FB012004B0BDE8F09F2846FFF79AFE26
:1031D0004FF0FF30F6E7F0B585B0DDE90B640A9DEE
:1031E000A6B1DCB1542700972663022684F851600B
:1031F000002604AFCDE90246CDE90057FFF792FC67
:103200002046FFF7B7FB049805B0F0BD502080F3CF
:103210001188BFF34F8FBFF36F8FFEE7502080F30D
:103220001188BFF34F8FBFF36F8FFEE70548C16969
:1032300019B1806B18B1002070470120704702203F
:1032400070470000240000202DE9F0412E4C00279B
:10325000A06B40B1206A401C2062606A00B1012767
:103260003846BDE8F0816669761C666113D16068F6
:10327000006838B1502080F31188BFF34F8FBFF33F
:103280006F8FFEE76068A1686160A060A06A401C63
:10329000A062FFF7B5FC206BDFF87080864209D38F
:1032A0006068006880B16068C068C5686868864208
:1032B0000DD220632068C06A00EB800158F821001D
:1032C0000128CAD90127C8E74FF0FF30F1E7281DD0
:1032D000FFF794FDA86A18B105F11800FFF78EFDFD
:1032E000E86A0121A26981401143A16100EB8001DC
:1032F00008EB8100291DFFF7C5FDE86A2168C96A4E
:103300008842CDD30127CBE72400002054040020BD
:103310002DE9F0472C4D00242746A86B38B1FFF764
:10332000BDFDA86B401EA863A86B40B146E05020CD
:1033300080F31188BFF34F8FBFF36F8FFEE72969CA
:10334000224E0120D1B3A6F1B40980463068E8B11D
:10335000F068C46804F11800FFF750FD201DFFF766
:103360004DFDE06AAA6908FA00F11143A96100EB7A
:10337000800109EB8100211DFFF784FDE06A2968C7
:10338000C96A8842E2D3C5F82480DFE70CB1FFF7B1
:1033900037FC2C6A44B14646FFF756FF00B16E6217
:1033A000641EF9D100202862686A38B108490127F3
:1033B00038070860BFF34F8FBFF36F8FFFF78EFDA5
:1033C0003846BDE8F08700002400002008050020F2
:1033D00004ED00E0883400083124000800000000FB
:1033E000000000008000000000000000000000005D
:1033F0009434000869240008FDFF0000000000006C
:103400008000000000000000000000007C34000884
:1034100075240008FDFF000000000000800000008F
:10342000000000000000000070340008392400088B
:10343000FDFF000000000000800000000000000010
:1034400000000000010202030405060708090A0B38
:103450000C0D0E0F10100000000000000000010213
:10346000030406070809000000000102030400002D
:103470006D795461736B303400000000656E636FCA
:103480006465745461736B0064656661756C745433
:1034900061736B00646973706C65795461736B0060
:1034A000C03400080000002084000000280100084B
:1034B000443500088400002024170000440100085F
:1034C00000000000000000000000000000000000FC
:1034D00000000000010000001000000000000000DB
:1034E0000024F400000000000000000000000000C4
:1034F00000000000000000000000000000000000CC
:1035000000000000000000000000000000000000BB
:1035100000000000000000000000000000000000AB
:10352000000000000000000000000000000000009B
:10353000000000000000000000000000AAAAAAAAE3
:043540000000000087
:04000005080000ED02
:00000001FF
